S023000031362D4C43445F77726974655F77656C636F6D655F73637265656E2E73726563E6
S11300000C942A000C9447000C9447000C9447006D
S11300100C9447000C9447000C9447000C94470040
S11300200C9447000C9447000C9447000C94470030
S11300300C9447000C9447000C9447000C94470020
S11300400C9447000C9447000C9447000C94470010
S11300500C94470011241FBECFE5D8E0DEBFCDBF0E
S113006010E0A0E6B0E0E6EBF7E002C005900D92E8
S1130070A037B107D9F710E0A0E7B0E001C01D92A6
S1130080A037B107E1F70E9449000C94D9030C94FE
S113009000000E94740380E690E00E94A803FFCF52
S11300A0843409F471C0853448F4823499F183347A
S11300B008F04DC0813409F083C00FC0823651F17D
S11300C0833620F4813609F07BC007C0833609F4F7
S11300D03EC0843609F074C057C0413069F42AB375
S11300E081E090E0AC0102C0440F551F6A95E2F72D
S11300F0BA01622B6ABB08952AB381E090E0AC0197
S113010002C0440F551F6A95E2F7BA016095622355
S11301106ABB0895413069F427B381E090E0AC01F3
S113012002C0440F551F6A95E2F7BA01622B67BB00
S1130130089527B381E090E0AC0102C0440F551F3D
S11301406A95E2F7BA016095622367BB089541306E
S113015069F424B381E090E0AC0102C0440F551F60
S11301606A95E2F7BA01622B64BB089524B381E077
S113017090E0AC0102C0440F551F6A95E2F7BA0142
S11301806095622364BB0895413069F421B381E032
S113019090E0AC0102C0440F551F6A95E2F7BA0122
S11301A0622B61BB089521B381E090E0AC0102C0F1
S11301B0440F551F6A95E2F7BA016095622361BB4B
S11301C00895843409F471C0853448F4823499F173
S11301D0833408F04DC0813409F083C00FC08236E7
S11301E051F1833620F4813609F07BC007C0833691
S11301F009F43EC0843609F074C057C0413069F434
S11302002BB381E090E0AC0102C0440F551F6A9506
S1130210E2F7BA01622B6BBB08952BB381E090E047
S1130220AC0102C0440F551F6A95E2F7BA0160950C
S113023062236BBB0895413069F428B381E090E0F8
S1130240AC0102C0440F551F6A95E2F7BA01622B54
S113025068BB089528B381E090E0AC0102C0440F6C
S1130260551F6A95E2F7BA016095622368BB089549
S1130270413069F425B381E090E0AC0102C0440F41
S1130280551F6A95E2F7BA01622B65BB089525B341
S113029081E090E0AC0102C0440F551F6A95E2F77B
S11302A0BA016095622365BB0895413069F422B3B5
S11302B081E090E0AC0102C0440F551F6A95E2F75B
S11302C0BA01622B62BB089522B381E090E0AC01D5
S11302D002C0440F551F6A95E2F7BA016095622384
S11302E062BB0895843499F1853438F48234D9F0AA
S11302F0833418F58134A9F50CC08236A1F0833615
S113030018F4813671F505C08336B9F0843649F5A1
S11303101EC029B330E0C90102C0959587956A953E
S1130320E2F78170089526B330E0C90102C09595C3
S113033087956A95E2F78170089523B330E0C90187
S113034002C0959587956A95E2F78170089520B368
S113035030E0C90102C0959587956A95E2F78170EE
S1130360089580E00895843409F43DC0853440F450
S11303708234F9F0833450F5813409F040C00CC064
S11303808236B9F0833618F48136C9F505C0833650
S1130390E9F08436A1F527C02BB381E090E0AC01ED
S11303A002C0440F551F6A95E2F7BA0162276BBB7E
S11303B0089528B381E090E0AC0102C0440F551FBA
S11303C06A95E2F7BA01622768BB089525B381E014
S11303D090E0AC0102C0440F551F6A95E2F7BA01E0
S11303E0622765BB089522B381E090E0AC0102C0AE
S11303F0440F551F6A95E2F7BA01622762BB08955C
S11304008434D9F0853438F4823499F0833498F400
S11304108134A1F40CC0823661F0833618F481363D
S113042069F405C0833639F0843641F406C06ABBEA
S1130430089567BB089564BB089561BB089584342F
S1130440D9F0853438F4823499F0833498F48134C3
S1130450A1F40CC0823661F0833618F4813669F455
S113046005C0833639F0843641F406C06BBB089569
S113047068BB089565BB089562BB08958434D9F0C0
S1130480853438F4823499F0833498F48134A9F4AF
S11304900CC0823661F0833618F4813671F405C0DD
S11304A0833639F0843649F406C089B3089586B397
S11304B0089583B3089580B3089580E00895843443
S11304C009F457C0853440F4823449F18334E0F5AB
S11304D0813409F062C00EC0823609F1833620F4FB
S11304E0813609F05AC006C0833671F1843609F0AA
S11304F054C03FC02AB381E090E0AC0102C0440F75
S1130500551F6A95E2F7BA01842F809582238ABB2E
S113051080B78B7F80BF8BB3682B6BBB089527B3E9
S113052081E090E0AC0102C0440F551F6A95E2F7E8
S1130530BA01842F8095822387BB80B78B7F80BFCD
S113054088B3682B68BB089524B381E090E0AC01C4
S113055002C0440F551F6A95E2F7BA01842F8095B3
S1130560822384BB80B78B7F80BF85B3682B65BB38
S1130570089521B381E090E0AC0102C0440F551FFF
S11305806A95E2F7BA01842F8095822381BB80B7F4
S11305908B7F80BF82B3682B62BB08956295607FB6
S11305A0843451F1853438F48234C1F08334E8F46E
S11305B0813441F50CC0823689F0833618F48136D3
S11305C009F505C0833689F08436E1F415C08BB390
S11305D08F708BBB8BB3682B6BBB089588B38F7004
S11305E088BB88B3682B68BB089585B38F7085BBBF
S11305F085B3682B65BB089582B38F7082BB82B3C9
S1130600682B62BB08956F70843451F1853438F4DB
S11306108234C1F08334E8F4813441F50CC082366D
S113062089F0833618F4813609F505C0833689F0DC
S11306308436E1F415C08BB3807F8BBB8BB3682BFE
S11306406BBB089588B3807F88BB88B3682B68BB75
S1130650089585B3807F85BB85B3682B65BB0895FA
S113066082B3807F82BB82B3682B62BB089582E42D
S113067060E041E00E94E1008FE99FE00197F1F71B
S113068000C0000082E460E040E00E94E1008FECE2
S113069097E00197F1F700C000000895682F81E406
S11306A00E941F0282E461E040E00E94E1000E9497
S11306B03703089582E461E040E00E94E10081E4B0
S11306C061E00E941F028FE99FE00197F1F700C0EB
S11306D00000089582E00E944E038FE99FE0019795
S11306E0F1F700C0000008958FEF99EFA0E081506A
S11306F09040A040E1F700C0000081E461E00E9466
S1130700000282E460E041E00E94500082E461E083
S113071041E00E94500088E30E944E030E946A0355
S11307208CE00E944E030E945A0386E00E944E030E
S11307300895CF93C82F82E461E041E00E94E10074
S113074081E46C2F0E941F020E943703CF91089509
S1130750CF93DF93EC018881882331F021960E94A6
S1130760990389918823D9F7DF91CF910895982F20
S113077091509430B0F46623B1F06531B0F4813017
S113078019F4862F815812C0823019F4862F8154AF
S11307900DC0833019F4862F815708C0862F8153EA
S11307A005C080E803C080E801C080E80E944E03D1
S10907B00895F894FFCF48
S11307B64D6F68616D6564205961737365720000DD
S9030000FC
