:100000000C942A000C9447000C9447000C94470071
:100010000C9447000C9447000C9447000C94470044
:100020000C9447000C9447000C94A6010C944700D4
:100030000C9447000C9447000C9447000C94470024
:100040000C9447000C9447000C9447000C94470014
:100050000C94470011241FBECFE5D8E0DEBFCDBF12
:1000600010E0A0E6B0E0E4EFFBE002C005900D92E6
:10007000A43BB107D9F710E0A4EBB0E001C01D929A
:10008000A63BB107E1F70E9449000C94F8050C94D7
:100090000000CF93DF9300D000D0CDB7DEB784E46B
:1000A00060E00E94390584E461E00E94390584E43F
:1000B00062E00E94390584E463E00E94390584E42B
:1000C00064E00E9439050E94D40483E460E00E9449
:1000D0004B0580E690E00E9408050E94D6051A8232
:1000E0001C8281E08B83198201E00F2EFAE07F2EC3
:1000F000F02D1AE00F2EFFE7CF2EF0E0DF2EF02DCF
:100100000F2EFAE7EF2EF0E0FF2EF02D0F2EF1E785
:10011000AF2EF0E0BF2EF02D0F2EF5E09F2EF02D2C
:1001200015C0E1E0EC8312C0F1E0FC8381E089833B
:1001300000E0792C0BC0E1E0EA83198200E0712E27
:1001400005C0F1E0FB83198201E0712E8091B500BA
:100150008F3118F01092B5007A948091B40080FD30
:1001600013C084E461E00E94410584E460E00E94E1
:100170003D05872D612F0E94EC05682F83E440E048
:1001800021E00E94910512C084E460E00E944105D4
:1001900084E461E00E943D05872D612F0E94EC05FB
:1001A00083E4692F40E021E00E949105013009F0CD
:1001B00041C083E061E00E941705C5010E94080567
:1001C00084E061E00E9417058B81813041F488242E
:1001D0008FEF0E94F90483947814D0F71B82672D67
:1001E0006F5F84E00E94170580E20E94F90483E0BB
:1001F00069E00E941705872D612F0E94EC05892E6A
:10020000805D0E94F904882D805D0E94F904C70179
:100210000E94080584E462E00E943D0584E463E0F6
:100220000E94410584E464E00E944105772009F4BE
:100230007BCF77CFE981E13009F041C083E061E015
:100240000E941705C5010E94080584E061E00E9434
:100250001705FC81F13041F488248FEF0E94F904E6
:1002600083947814D0F71C82672D6F5F84E00E941E
:10027000170580E20E94F90483E069E00E941705F7
:10028000872D612F0E94EC05892E805D0E94F90464
:10029000882D805D0E94F904C7010E94080584E44E
:1002A00062E00E94410584E463E00E943D0584E42D
:1002B00064E00E944105772009F43DCF41C083E00E
:1002C00061E00E941705C6010E94080584E061E014
:1002D0000E9417058A81813041F488248FEF0E94A3
:1002E000F90483947814D0F71A82672D6F5F84E045
:1002F0000E94170580E20E94F90483E06BE00E94EF
:100300001705872D612F0E94EC05892E805D0E94C4
:10031000F904882D805D0E94F904C7010E94080538
:1003200084E462E00E94410584E463E00E944105A8
:1003300084E464E00E943D05772009F402CF03C005
:10034000E1E0EA8303CFF1E0FB8300CF1F920F923D
:100350000FB60F9211248F938091B5008F5F809319
:10036000B5008091B4008F5F8093B4008F910F909F
:100370000FBE0F901F901895843409F471C0853416
:1003800048F4823499F1833408F04DC0813409F087
:1003900083C00FC0823651F1833620F4813609F0D4
:1003A0007BC007C0833609F43EC0843609F074C0B0
:1003B00057C0413069F42AB381E090E0AC0102C03B
:1003C000440F551F6A95E2F7BA01622B6ABB089584
:1003D0002AB381E090E0AC0102C0440F551F6A953A
:1003E000E2F7BA01609562236ABB0895413069F46F
:1003F00027B381E090E0AC0102C0440F551F6A951D
:10040000E2F7BA01622B67BB089527B381E090E061
:10041000AC0102C0440F551F6A95E2F7BA0160951E
:10042000622367BB0895413069F424B381E090E012
:10043000AC0102C0440F551F6A95E2F7BA01622B66
:1004400064BB089524B381E090E0AC0102C0440F86
:10045000551F6A95E2F7BA016095622364BB08955F
:10046000413069F421B381E090E0AC0102C0440F57
:10047000551F6A95E2F7BA01622B61BB089521B35B
:1004800081E090E0AC0102C0440F551F6A95E2F78D
:10049000BA016095622361BB0895843409F471C088
:1004A000853448F4823499F1833408F04DC08134A6
:1004B00009F083C00FC0823651F1833620F48136B3
:1004C00009F07BC007C0833609F43EC0843609F0CA
:1004D00074C057C0413069F42BB381E090E0AC01A7
:1004E00002C0440F551F6A95E2F7BA01622B6BBB3D
:1004F00008952BB381E090E0AC0102C0440F551F7A
:100500006A95E2F7BA01609562236BBB08954130AA
:1005100069F428B381E090E0AC0102C0440F551F9C
:100520006A95E2F7BA01622B68BB089528B381E0AF
:1005300090E0AC0102C0440F551F6A95E2F7BA0182
:100540006095622368BB0895413069F425B381E06A
:1005500090E0AC0102C0440F551F6A95E2F7BA0162
:10056000622B65BB089525B381E090E0AC0102C029
:10057000440F551F6A95E2F7BA016095622365BB87
:100580000895413069F422B381E090E0AC0102C0EB
:10059000440F551F6A95E2F7BA01622B62BB0895BA
:1005A00022B381E090E0AC0102C0440F551F6A9570
:1005B000E2F7BA016095622362BB0895843499F131
:1005C000853438F48234D9F0833418F58134A9F5B0
:1005D0000CC08236A1F0833618F4813671F505C05F
:1005E0008336B9F0843649F51EC029B330E0C9011D
:1005F00002C0959587956A95E2F78170089526B3B4
:1006000030E0C90102C0959587956A95E2F781703F
:10061000089523B330E0C90102C0959587956A9586
:10062000E2F78170089520B330E0C90102C09595CA
:1006300087956A95E2F78170089580E00895843483
:1006400009F43DC0853440F48234F9F0833450F528
:10065000813409F040C00CC08236B9F0833618F4FA
:100660008136C9F505C08336E9F08436A1F527C087
:100670002BB381E090E0AC0102C0440F551F6A9596
:10068000E2F7BA0162276BBB089528B381E090E0DE
:10069000AC0102C0440F551F6A95E2F7BA01622708
:1006A00068BB089525B381E090E0AC0102C0440F1F
:1006B000551F6A95E2F7BA01622765BB089522B318
:1006C00081E090E0AC0102C0440F551F6A95E2F74B
:1006D000BA01622762BB08958434D9F0853438F4B6
:1006E000823499F0833498F48134A1F40CC08236BA
:1006F00061F0833618F4813669F405C0833639F029
:10070000843641F406C06ABB089567BB089564BB94
:10071000089561BB08958434D9F0853438F4823467
:1007200099F0833498F48134A1F40CC0823661F0DE
:10073000833618F4813669F405C0833639F084367F
:1007400041F406C06BBB089568BB089565BB08956E
:1007500062BB08958434D9F0853438F4823499F03A
:10076000833498F48134A9F40CC0823661F0833666
:1007700018F4813671F405C0833639F0843649F4B3
:1007800006C089B3089586B3089583B3089580B3EE
:10079000089580E00895843409F457C0853440F406
:1007A000823449F18334E0F5813409F062C00EC02F
:1007B000823609F1833620F4813609F05AC006C02A
:1007C000833671F1843609F054C03FC02AB381E00A
:1007D00090E0AC0102C0440F551F6A95E2F7BA01E0
:1007E000842F809582238ABB80B78B7F80BF8BB399
:1007F000682B6BBB089527B381E090E0AC0102C089
:10080000440F551F6A95E2F7BA01842F8095822321
:1008100087BB80B78B7F80BF88B3682B68BB089588
:1008200024B381E090E0AC0102C0440F551F6A95EB
:10083000E2F7BA01842F8095822384BB80B78B7F37
:1008400080BF85B3682B65BB089521B381E090E03C
:10085000AC0102C0440F551F6A95E2F7BA01842F1C
:100860008095822381BB80B78B7F80BF82B3682B4A
:1008700062BB08956295607F843451F1853438F409
:100880008234C1F08334E8F4813441F50CC08236FF
:1008900089F0833618F4813609F505C0833689F06E
:1008A0008436E1F415C08BB38F708BBB8BB3682B90
:1008B0006BBB089588B38F7088BB88B3682B68BB07
:1008C000089585B38F7085BB85B3682B65BB08958C
:1008D00082B38F7082BB82B3682B62BB08956F7046
:1008E000843451F1853438F48234C1F08334E8F42F
:1008F000813441F50CC0823689F0833618F4813694
:1009000009F505C0833689F08436E1F415C08BB350
:10091000807F8BBB8BB3682B6BBB089588B3807FC4
:1009200088BB88B3682B68BB089585B3807F85BB7F
:1009300085B3682B65BB089582B3807F82BB82B389
:10094000682B62BB089582E461E041E00E944D02A1
:100950008FEC97E00197F1F700C0000082E461E0BE
:1009600040E00E944D020895682F81E40E948B03AD
:1009700082E460E040E00E944D020E94A3040895DA
:1009800081E00E94B4048FE99FE00197F1F700C075
:100990000000089582E00E94B4048FE99FE001976F
:1009A000F1F700C0000008958FEF99EFA0E08150AB
:1009B0009040A040E1F700C0000081E461E00E94A7
:1009C0006C0382E461E041E00E94BC0182E460E0EB
:1009D00041E00E94BC0188E30E94B4040E94CA0462
:1009E0008CE00E94B4040E94C00486E00E94B4041B
:1009F0000895CF93C82F82E460E041E00E944D0249
:100A000081E46C2F0E948B030E94A304CF91089570
:100A1000CF93DF93EC018881882331F021960E94E7
:100A2000F90489918823D9F7DF91CF910895982F00
:100A300091509430B0F46623B1F06531B0F4813058
:100A400019F4862F815812C0823019F4862F8154F0
:100A50000DC0833019F4862F815708C0862F81532B
:100A600005C080E803C080E801C080E80E94B404AB
:100A7000089541E00E94BC01089541E00E944D02AA
:100A8000089540E00E944D0208950E941F030895BA
:100A90000E94DE020895CF93DF93D82F613021F4B6
:100AA0006FEF0E946C0309C0C0E08D2F6C2F41E0F6
:100AB0000E94BC01CF5FC730C1F7DF91CF9108958D
:100AC000CF93DF93D82FC0E08D2F6C2F41E00E9491
:100AD000BC01CF5FC430C1F7DF91CF910895CF93B0
:100AE000DF93CDB7DEB72A970FB6F894DEBF0FBEFF
:100AF000CDBFDE011196EAE8F0E09AE001900D9298
:100B00009150E1F7FE01E60FF11D61810E948B0318
:100B10002A960FB6F894DEBF0FBECDBFDF91CF91FE
:100B20000895CF93DF93CDB7DEB760970FB6F894F3
:100B3000DEBF0FBECDBF2130C9F4DE011196E4E95E
:100B4000F0E090E101900D929150E1F7413031F4E5
:100B5000FE01E60FF11D61816F7705C0FE01E60F12
:100B6000F11D618160680E948B0317C0DE01119640
:100B7000E4EAF0E090E101900D929150E1F741300C
:100B800031F4FE01E60FF11D6181606804C0FE01D1
:100B9000E60FF11D61810E948B0360960FB6F894F9
:100BA000DEBF0FBECDBFDF91CF91089583B78F7B9E
:100BB00083BF83B7886083BF8CEF8CBF83B78160AE
:100BC00083BF83B78D7F83BF83B7846083BF7894EF
:100BD00089B7826089BF0895991B79E004C0991F85
:100BE000961708F0961B881F7A95C9F78095089587
:040BF000F894FFCFA7
:100BF4004265206361726566756C20285E5F5E29BC
:100C0400004361727320676F200020736563005096
:100C1400656F706C6520676F200000010203040596
:100C24000607080940792430191202380010080018
:100C34004640060E3F065B4F666D7D477F6F777FAC
:040C4400393F79714A
:00000001FF
