:100000000C942A000C9447000C9447000C94470071
:100010000C9447000C9447000C9447000C94470044
:100020000C9447000C9447000C9447000C94470034
:100030000C9447000C9447000C9447000C94470024
:100040000C9447000C945D000C9447000C944700FE
:100050000C94470011241FBECFE5D8E0DEBFCDBF12
:1000600010E0A0E6B0E0EEE3F7E002C005900D92EC
:10007000A036B107D9F710E0A0E6B0E001C01D92AC
:10008000A036B107E1F70E9449000C949D030C943F
:10009000000083E465E00E948B037894E39A80E893
:1000A00090E065E90E94740380E890E00E94830379
:1000B00083E465E00E949303FBCF1F920F920FB67B
:1000C0000F9211242F933F934F935F936F937F93DE
:1000D0008F939F93AF93BF93EF93FF9383E465E078
:1000E0000E948F038FEF93EDA0E381509040A040DA
:1000F000E1F700C00000E398FF91EF91BF91AF914D
:100100009F918F917F916F915F914F913F912F912F
:100110000F900FBE0F901F901895843409F471C092
:10012000853448F4823499F1833408F04DC0813429
:1001300009F083C00FC0823651F1833620F4813636
:1001400009F07BC007C0833609F43EC0843609F04D
:1001500074C057C0413069F42AB381E090E0AC012B
:1001600002C0440F551F6A95E2F7BA01622B6ABBC1
:1001700008952AB381E090E0AC0102C0440F551FFE
:100180006A95E2F7BA01609562236ABB089541302F
:1001900069F427B381E090E0AC0102C0440F551F21
:1001A0006A95E2F7BA01622B67BB089527B381E035
:1001B00090E0AC0102C0440F551F6A95E2F7BA0106
:1001C0006095622367BB0895413069F424B381E0F0
:1001D00090E0AC0102C0440F551F6A95E2F7BA01E6
:1001E000622B64BB089524B381E090E0AC0102C0AF
:1001F000440F551F6A95E2F7BA016095622364BB0C
:100200000895413069F421B381E090E0AC0102C06F
:10021000440F551F6A95E2F7BA01622B61BB08953E
:1002200021B381E090E0AC0102C0440F551F6A95F4
:10023000E2F7BA016095622361BB0895843409F442
:1002400071C0853448F4823499F1833408F04DC08C
:10025000813409F083C00FC0823651F1833620F417
:10026000813609F07BC007C0833609F43EC084366E
:1002700009F074C057C0413069F42BB381E090E0BD
:10028000AC0102C0440F551F6A95E2F7BA01622B18
:100290006BBB08952BB381E090E0AC0102C0440F2A
:1002A000551F6A95E2F7BA01609562236BBB08950A
:1002B000413069F428B381E090E0AC0102C0440F02
:1002C000551F6A95E2F7BA01622B68BB089528B3FF
:1002D00081E090E0AC0102C0440F551F6A95E2F73F
:1002E000BA016095622368BB0895413069F425B373
:1002F00081E090E0AC0102C0440F551F6A95E2F71F
:10030000BA01622B65BB089525B381E090E0AC0192
:1003100002C0440F551F6A95E2F7BA016095622347
:1003200065BB0895413069F422B381E090E0AC01EF
:1003300002C0440F551F6A95E2F7BA01622B62BBF7
:10034000089522B381E090E0AC0102C0440F551F34
:100350006A95E2F7BA016095622362BB089584341E
:1003600099F1853438F48234D9F0833418F5813426
:10037000A9F50CC08236A1F0833618F4813671F5E8
:1003800005C08336B9F0843649F51EC029B330E084
:10039000C90102C0959587956A95E2F78170089525
:1003A00026B330E0C90102C0959587956A95E2F7BA
:1003B0008170089523B330E0C90102C095958795F7
:1003C0006A95E2F78170089520B330E0C90102C058
:1003D000959587956A95E2F78170089580E0089574
:1003E000843409F43DC0853440F48234F9F0833418
:1003F00050F5813409F040C00CC08236B9F0833624
:1004000018F48136C9F505C08336E9F08436A1F5C4
:1004100027C02BB381E090E0AC0102C0440F551F10
:100420006A95E2F7BA0162276BBB089528B381E0B1
:1004300090E0AC0102C0440F551F6A95E2F7BA0183
:10044000622768BB089525B381E090E0AC0102C04B
:10045000440F551F6A95E2F7BA01622765BB0895FC
:1004600022B381E090E0AC0102C0440F551F6A95B1
:10047000E2F7BA01622762BB08958434D9F085346B
:1004800038F4823499F0833498F48134A1F40CC0A8
:10049000823661F0833618F4813669F405C08336FC
:1004A00039F0843641F406C06ABB089567BB0895ED
:1004B00064BB089561BB08958434D9F0853438F461
:1004C000823499F0833498F48134A1F40CC08236DC
:1004D00061F0833618F4813669F405C0833639F04B
:1004E000843641F406C06BBB089568BB089565BBB4
:1004F000089562BB08958434D9F0853438F4823489
:1005000099F0833498F48134A9F40CC0823661F0F8
:10051000833618F4813671F405C0833639F0843699
:1005200049F406C089B3089586B3089583B3089546
:1005300080B3089580E00895843409F457C0853469
:1005400040F4823449F18334E0F5813409F062C02B
:100550000EC0823609F1833620F4813609F05AC084
:1005600006C0833671F1843609F054C03FC02AB307
:1005700081E090E0AC0102C0440F551F6A95E2F79C
:10058000BA01842F809582238ABB80B78B7F80BF7E
:100590008BB3682B6BBB089527B381E090E0AC016F
:1005A00002C0440F551F6A95E2F7BA01842F809567
:1005B000822387BB80B78B7F80BF88B3682B68BBE3
:1005C000089524B381E090E0AC0102C0440F551FB0
:1005D0006A95E2F7BA01842F8095822384BB80B7A5
:1005E0008B7F80BF85B3682B65BB089521B381E005
:1005F00090E0AC0102C0440F551F6A95E2F7BA01C2
:10060000842F8095822381BB80B78B7F80BF82B38C
:10061000682B62BB08956295607F843451F1853404
:1006200038F48234C1F08334E8F4813441F50CC0ED
:10063000823689F0833618F4813609F505C0833691
:1006400089F08436E1F415C08BB38F708BBB8BB30C
:10065000682B6BBB089588B38F7088BB88B3682BF9
:1006600068BB089585B38F7085BB85B3682B65BB68
:10067000089582B38F7082BB82B3682B62BB0895EA
:100680006F70843451F1853438F48234C1F083348E
:10069000E8F4813441F50CC0823689F0833618F4D1
:1006A000813609F505C0833689F08436E1F415C03A
:1006B0008BB3807F8BBB8BB3682B6BBB089588B3E8
:1006C000807F88BB88B3682B68BB089585B3807F23
:1006D00085BB85B3682B65BB089582B3807F82BBE1
:1006E00082B3682B62BB08952CB321FDFDCF07B602
:1006F00000FCFDCF8EBB9FBB6DBBE29AE19A8CB331
:1007000081FDFDCF08952CB321FDFDCF8EBB9FBB96
:10071000E09A8DB3089541E00E948D00089541E074
:100720000E941E01089540E00E941E0108950E944B
:0E073000F00108950E94AF010895F894FFCFE4
:00000001FF
