:100000000C942A000C9447000C9447000C94470071
:100010000C9447000C9447000C9447000C94470044
:100020000C9447000C9447000C9447000C94470034
:100030000C9447000C9447000C9447000C94470024
:100040000C9447000C9447000C9447000C94470014
:100050000C94470011241FBECFE5D8E0DEBFCDBF12
:1000600010E0A0E6B0E0E6EDF6E002C005900D92EB
:10007000AA38B107D9F710E0AAE8B0E001C01D9294
:10008000AA38B107E1F70E9449000C9469030C9467
:10009000000083E60E94F302C0E0D0E083E46C2F0E
:1000A0000E9402038FEF99E6A8E181509040A040A2
:1000B000E1F700C00000CF5FCA3080F3CD2FEECF54
:1000C000843409F471C0853448F4823499F183345E
:1000D00008F04DC0813409F083C00FC0823651F161
:1000E000833620F4813609F07BC007C0833609F4DB
:1000F0003EC0843609F074C057C0413069F42AB359
:1001000081E090E0AC0102C0440F551F6A95E2F710
:10011000BA01622B6ABB08952AB381E090E0AC017A
:1001200002C0440F551F6A95E2F7BA016095622339
:100130006ABB0895413069F427B381E090E0AC01D7
:1001400002C0440F551F6A95E2F7BA01622B67BBE4
:10015000089527B381E090E0AC0102C0440F551F21
:100160006A95E2F7BA016095622367BB0895413052
:1001700069F424B381E090E0AC0102C0440F551F44
:100180006A95E2F7BA01622B64BB089524B381E05B
:1001900090E0AC0102C0440F551F6A95E2F7BA0126
:1001A0006095622364BB0895413069F421B381E016
:1001B00090E0AC0102C0440F551F6A95E2F7BA0106
:1001C000622B61BB089521B381E090E0AC0102C0D5
:1001D000440F551F6A95E2F7BA016095622361BB2F
:1001E0000895843409F471C0853448F4823499F157
:1001F000833408F04DC0813409F083C00FC08236CB
:1002000051F1833620F4813609F07BC007C0833674
:1002100009F43EC0843609F074C057C0413069F417
:100220002BB381E090E0AC0102C0440F551F6A95EA
:10023000E2F7BA01622B6BBB08952BB381E090E02B
:10024000AC0102C0440F551F6A95E2F7BA016095F0
:1002500062236BBB0895413069F428B381E090E0DC
:10026000AC0102C0440F551F6A95E2F7BA01622B38
:1002700068BB089528B381E090E0AC0102C0440F50
:10028000551F6A95E2F7BA016095622368BB08952D
:10029000413069F425B381E090E0AC0102C0440F25
:1002A000551F6A95E2F7BA01622B65BB089525B325
:1002B00081E090E0AC0102C0440F551F6A95E2F75F
:1002C000BA016095622365BB0895413069F422B399
:1002D00081E090E0AC0102C0440F551F6A95E2F73F
:1002E000BA01622B62BB089522B381E090E0AC01B9
:1002F00002C0440F551F6A95E2F7BA016095622368
:1003000062BB0895843499F1853438F48234D9F08D
:10031000833418F58134A9F50CC08236A1F08336F8
:1003200018F4813671F505C08336B9F0843649F585
:100330001EC029B330E0C90102C0959587956A9522
:10034000E2F78170089526B330E0C90102C09595A7
:1003500087956A95E2F78170089523B330E0C9016B
:1003600002C0959587956A95E2F78170089520B34C
:1003700030E0C90102C0959587956A95E2F78170D2
:10038000089580E00895843409F43DC0853440F434
:100390008234F9F0833450F5813409F040C00CC048
:1003A0008236B9F0833618F48136C9F505C0833634
:1003B000E9F08436A1F527C02BB381E090E0AC01D1
:1003C00002C0440F551F6A95E2F7BA0162276BBB62
:1003D000089528B381E090E0AC0102C0440F551F9E
:1003E0006A95E2F7BA01622768BB089525B381E0F8
:1003F00090E0AC0102C0440F551F6A95E2F7BA01C4
:10040000622765BB089522B381E090E0AC0102C091
:10041000440F551F6A95E2F7BA01622762BB08953F
:100420008434D9F0853438F4823499F0833498F4E4
:100430008134A1F40CC0823661F0833618F4813621
:1004400069F405C0833639F0843641F406C06ABBCE
:10045000089567BB089564BB089561BB0895843413
:10046000D9F0853438F4823499F0833498F48134A7
:10047000A1F40CC0823661F0833618F4813669F439
:1004800005C0833639F0843641F406C06BBB08954D
:1004900068BB089565BB089562BB08958434D9F0A4
:1004A000853438F4823499F0833498F48134A9F493
:1004B0000CC0823661F0833618F4813671F405C0C1
:1004C000833639F0843649F406C089B3089586B37B
:1004D000089583B3089580B3089580E00895843427
:1004E00009F457C0853440F4823449F18334E0F58F
:1004F000813409F062C00EC0823609F1833620F4DF
:10050000813609F05AC006C0833671F1843609F08D
:1005100054C03FC02AB381E090E0AC0102C0440F58
:10052000551F6A95E2F7BA01842F809582238ABB12
:1005300080B78B7F80BF8BB3682B6BBB089527B3CD
:1005400081E090E0AC0102C0440F551F6A95E2F7CC
:10055000BA01842F8095822387BB80B78B7F80BFB1
:1005600088B3682B68BB089524B381E090E0AC01A8
:1005700002C0440F551F6A95E2F7BA01842F809597
:10058000822384BB80B78B7F80BF85B3682B65BB1C
:10059000089521B381E090E0AC0102C0440F551FE3
:1005A0006A95E2F7BA01842F8095822381BB80B7D8
:1005B0008B7F80BF82B3682B62BB0895CF93DF939C
:1005C000D82F613021F46FEF0E94100209C0C0E003
:1005D0008D2F6C2F41E00E946000CF5FC730C1F7C4
:1005E000DF91CF910895CF93DF93D82FC0E08D2F67
:1005F0006C2F41E00E946000CF5FC430C1F7DF91F3
:10060000CF910895CF93DF93CDB7DEB72A970FB67A
:10061000F894DEBF0FBECDBFDE011196E0E6F0E03C
:100620009AE001900D929150E1F7FE01E60FF11D65
:1006300061810E942F022A960FB6F894DEBF0FBE8A
:10064000CDBFDF91CF910895CF93DF93CDB7DEB7C4
:1006500060970FB6F894DEBF0FBECDBF2130C9F44E
:10066000DE011196EAE6F0E090E101900D929150E2
:10067000E1F7413031F4FE01E60FF11D61816F7742
:1006800005C0FE01E60FF11D618160680E942F0226
:1006900017C0DE011196EAE7F0E090E101900D92BB
:1006A0009150E1F7413031F4FE01E60FF11D618117
:1006B000606804C0FE01E60FF11D61810E942F02F7
:1006C00060960FB6F894DEBF0FBECDBFDF91CF911D
:0606D0000895F894FFCF2D
:1006D60000010203040506070809407924301912AF
:1006E6000238001008004640060E3F065B4F666D56
:0A06F6007D477F6F777F393F7971F0
:00000001FF
