S027000032352D6E756D6265725F67616D655F4C43445F74696D65725F6B65797061642E7372656358
S11300000C942A000C9447000C9447000C9447006D
S11300100C9447000C9447000C9447000C94470040
S11300200C9447000C9447000C94B0000C944700C7
S11300300C9447000C9447000C9447000C94470020
S11300400C9447000C9447000C9447000C94470010
S11300500C94470011241FBECFE5D8E0DEBFCDBF0E
S113006010E0A0E6B0E0E6E8FBE002C005900D92E7
S1130070A038B107D9F710E0A0E8B0E001C01D92A4
S1130080A138B107E1F70E9451000C94C1050C940A
S113009000000E94550568E070E00E94ED048F5F47
S11300A008950E944900C82F0E944900D82F0E9439
S11300B052040E94A80380E690E00E9486040E94F5
S11300C0B7048D2F90E08C0F911D6AE070E00E94C0
S11300D0D904062F005D182F105DDAE0C05D809111
S11300E0800080916F00815080936F001092800097
S11300F081E06FE00E94950480916F006D2F0E9453
S1130100CD04805D0E94770480916F006D2F0E9462
S1130110CD04892F805D0E94770482E061E00E9413
S113012095048C2F0E94770480E20E9477048BE26E
S11301300E94770480E20E9477048FE30E94770490
S113014080E20E9477048DE30E94770480E20E949B
S11301507704802F0E947704812F0E947704BFCFF9
S11301601F920F920FB60F9211248F9380918000EB
S11301708F5F809380008F910F900FBE0F901F9020
S11301801895843409F471C0853448F4823499F1A3
S1130190833408F04DC0813409F083C00FC0823627
S11301A051F1833620F4813609F07BC007C08336D1
S11301B009F43EC0843609F074C057C0413069F474
S11301C02AB381E090E0AC0102C0440F551F6A9548
S11301D0E2F7BA01622B6ABB08952AB381E090E08A
S11301E0AC0102C0440F551F6A95E2F7BA0160954D
S11301F062236ABB0895413069F427B381E090E03B
S1130200AC0102C0440F551F6A95E2F7BA01622B94
S113021067BB089527B381E090E0AC0102C0440FAE
S1130220551F6A95E2F7BA016095622367BB08958A
S1130230413069F424B381E090E0AC0102C0440F82
S1130240551F6A95E2F7BA01622B64BB089524B383
S113025081E090E0AC0102C0440F551F6A95E2F7BB
S1130260BA016095622364BB0895413069F421B3F7
S113027081E090E0AC0102C0440F551F6A95E2F79B
S1130280BA01622B61BB089521B381E090E0AC0117
S113029002C0440F551F6A95E2F7BA0160956223C4
S11302A061BB0895843409F471C0853448F4823400
S11302B099F1833408F04DC0813409F083C00FC034
S11302C0823651F1833620F4813609F07BC007C0B1
S11302D0833609F43EC0843609F074C057C04130F7
S11302E069F42BB381E090E0AC0102C0440F551FC8
S11302F06A95E2F7BA01622B6BBB08952BB381E0D8
S113030090E0AC0102C0440F551F6A95E2F7BA01B0
S1130310609562236BBB0895413069F428B381E092
S113032090E0AC0102C0440F551F6A95E2F7BA0190
S1130330622B68BB089528B381E090E0AC0102C051
S1130340440F551F6A95E2F7BA016095622368BBB2
S11303500895413069F425B381E090E0AC0102C016
S1130360440F551F6A95E2F7BA01622B65BB0895E5
S113037025B381E090E0AC0102C0440F551F6A959B
S1130380E2F7BA016095622365BB0895413069F4D0
S113039022B381E090E0AC0102C0440F551F6A957E
S11303A0E2F7BA01622B62BB089522B381E090E0C8
S11303B0AC0102C0440F551F6A95E2F7BA0160957B
S11303C0622362BB0895843499F1853438F482340D
S11303D0D9F0833418F58134A9F50CC08236A1F024
S11303E0833618F4813671F505C08336B9F0843646
S11303F049F51EC029B330E0C90102C0959587951F
S11304006A95E2F78170089526B330E0C90102C00D
S1130410959587956A95E2F78170089523B330E046
S1130420C90102C0959587956A95E2F78170089590
S113043020B330E0C90102C0959587956A95E2F72B
S11304408170089580E00895843409F43DC08534B2
S113045040F48234F9F0833450F5813409F040C01B
S11304600CC08236B9F0833618F48136C9F505C05C
S11304708336E9F08436A1F527C02BB381E090E000
S1130480AC0102C0440F551F6A95E2F7BA01622716
S11304906BBB089528B381E090E0AC0102C0440F27
S11304A0551F6A95E2F7BA01622768BB089525B320
S11304B081E090E0AC0102C0440F551F6A95E2F759
S11304C0BA01622765BB089522B381E090E0AC01D4
S11304D002C0440F551F6A95E2F7BA01622762BB56
S11304E008958434D9F0853438F4823499F083340F
S11304F098F48134A1F40CC0823661F0833618F488
S1130500813669F405C0833639F0843641F406C077
S11305106ABB089567BB089564BB089561BB0895E1
S11305208434D9F0853438F4823499F0833498F4DF
S11305308134A1F40CC0823661F0833618F481361C
S113054069F405C0833639F0843641F406C06BBBC8
S1130550089568BB089565BB089562BB089584340B
S1130560D9F0853438F4823499F0833498F48134A2
S1130570A9F40CC0823661F0833618F4813671F424
S113058005C0833639F0843649F406C089B308952A
S113059086B3089583B3089580B3089580E00895E1
S11305A0843409F457C0853440F4823449F18334E7
S11305B0E0F5813409F062C00EC0823609F1833659
S11305C020F4813609F05AC006C0833671F18436AE
S11305D009F054C03FC02AB381E090E0AC0102C0EE
S11305E0440F551F6A95E2F7BA01842F8095822340
S11305F08ABB80B78B7F80BF8BB3682B6BBB08959E
S113060027B381E090E0AC0102C0440F551F6A9506
S1130610E2F7BA01842F8095822387BB80B78B7F52
S113062080BF88B3682B68BB089524B381E090E051
S1130630AC0102C0440F551F6A95E2F7BA01842F3A
S11306408095822384BB80B78B7F80BF85B3682B62
S113065065BB089521B381E090E0AC0102C0440F72
S1130660551F6A95E2F7BA01842F8095822381BBD6
S113067080B78B7F80BF82B3682B62BB089562957D
S1130680607F843451F1853438F48234C1F083348A
S1130690E8F4813441F50CC0823689F0833618F4CD
S11306A0813609F505C0833689F08436E1F415C036
S11306B08BB38F708BBB8BB3682B6BBB089588B3E4
S11306C08F7088BB88B3682B68BB089585B38F701F
S11306D085BB85B3682B65BB089582B38F7082BBDD
S11306E082B3682B62BB08956F70843451F18534F2
S11306F038F48234C1F08334E8F4813441F50CC019
S1130700823689F0833618F4813609F505C08336BC
S113071089F08436E1F415C08BB3807F8BBB8BB337
S1130720682B6BBB089588B3807F88BB88B3682B24
S113073068BB089585B3807F85BB85B3682B65BB93
S1130740089582B3807F82BB82B3682B62BB089515
S113075083E460E041E00E94C10083E461E041E0A1
S11307600E94C10083E462E041E00E94C10083E48E
S113077063E00E94D00283E464E00E94D00283E438
S113078065E00E94D00283E466E00E94D0020895EE
S11307900F931F93CF93DF93CDB7DEB72C970FB68C
S11307A0F894DEBF0FBECDBFDE011196E0E7F0E0A6
S11307B08CE001900D928150E1F710E083E460E059
S11307C041E00E94520183E461E041E00E94520151
S11307D083E462E041E00E94520183E4612F40E03F
S11307E00E94520100E0602F6D5F83E40E94E301E8
S11307F0882369F4802F90E0FC01EE0FFF1FE80FBF
S1130800F91FE10FF11DEC0FFD1F818104C00F5F83
S1130810043049F70BC02C960FB6F894DEBF0FBE18
S1130820CDBFDF91CF911F910F9108951F5F1330BA
S113083029F68FEFF0CF82E461E041E00E9452019B
S11308408FE99FE00197F1F700C0000082E461E0C6
S113085040E00E9452018FEC97E00197F1F700C04D
S113086000000895682F81E40E94900282E460E011
S113087040E00E9452010E941B04089581E00E94FE
S113088032048FE99FE00197F1F700C0000008955A
S113089082E00E9432048FE99FE00197F1F700C0E3
S11308A0000008958FEF99EFA0E081509040A040A0
S11308B0E1F700C0000081E461E00E94710282E47B
S11308C061E041E00E94C10082E460E041E00E94F6
S11308D0C10088E30E9432040E9448048CE00E9414
S11308E032040E943E0486E00E9432040895CF93AD
S11308F0C82F82E460E041E00E94520181E46C2F41
S11309000E9490020E941B04CF910895CF93DF931D
S1130910EC018881882331F021960E947704899123
S11309208823D9F7DF91CF910895982F915094306F
S1130930B0F46623B1F06531B0F4813019F4862F38
S1130940815812C0823019F4862F81540DC083302F
S113095019F4862F815708C0862F815305C080E87B
S113096003C080E801C080E80E943204089583B780
S11309708F7B83BF83B7886083BF8CEF8CBF83B7C3
S1130980816083BF83B78D7F83BF83B7846083BF58
S1130990789489B7826089BF0895991B79E004C06F
S11309A0991F961708F0961B881F7A95C9F78095AA
S11309B00895AA1BBB1B51E107C0AA1FBB1FA617A2
S11309C0B70710F0A61BB70B881F991F5A95A9F7F4
S11309D080959095BC01CD01089597FB092E0726BB
S11309E00AD077FD04D0E5DF06D000201AF4709514
S11309F061957F4F0895F6F7909581959F4F0895DF
S1130A008F929F92AF92BF92CF92DF92EF92FF921A
S1130A10CF93DF93EC0188819981AA81BB810097F0
S1130A20A105B10521F484E299EDABE5B7E0BC0181
S1130A30CD012DE133EF41E050E00E9484054901EE
S1130A405A0127EA31E440E050E00E9465056B0159
S1130A507C01C501B4012CEE34EF4FEF5FEF0E942F
S1130A606505DC01CB01C80ED91EEA1EFB1EF7FE8C
S1130A7008C08FEF9FEFAFEFBFE7C80ED91EEA1E85
S1130A80FB1EC882D982EA82FB82C6019F77DF916E
S1130A90CF91FF90EF90DF90CF90BF90AF909F9059
S1130AA08F9008950E94000508958CE790E00E94BD
S1130AB000050895A0E0B0E080937C0090937D0051
S1130AC0A0937E00B0937F000895629FD001739F2E
S1130AD0F001829FE00DF11D649FE00DF11D929FD6
S1130AE0F00D839FF00D749FF00D659FF00D992715
S1130AF0729FB00DE11DF91F639FB00DE11DF91F39
S1130B00BD01CF011124089597FB092E05260ED0AF
S1130B1057FD04D014D00AD0001C38F450954095E9
S1130B20309521953F4F4F4F5F4F0895F6F79095BD
S1130B308095709561957F4F8F4F9F4F0895A1E2E7
S1130B401A2EAA1BBB1BFD010DC0AA1FBB1FEE1F43
S1130B50FF1FA217B307E407F50720F0A21BB30B8E
S1130B60E40BF50B661F771F881F991F1A9469F70A
S1130B7060957095809590959B01AC01BD01CF0166
S1090B800895F894FFCF74
S1130B865365636F6E6473206C6566743A20000A5D
S1130B963132333435363738392A302301000000F0
S9030000FC
