S02A000032342D546F67676C655F332D4C4544735F6F6E655F74776F5F74687265655F7365632E7372656393
S11300000C942A000C9447000C9447000C9447006D
S11300100C9447000C9447000C9447000C94470040
S11300200C9447000C9447000C9476000C94470001
S11300300C9447000C9447000C9447000C94470020
S11300400C9447000C9447000C9447000C94470010
S11300500C94470011241FBECFE5D8E0DEBFCDBF0E
S113006010E0A0E6B0E0E4E4F7E002C005900D92F1
S1130070A036B107D9F710E0A0E6B0E001C01D92A8
S1130080A336B107E1F70E9449000C94A0030C9435
S1130090000081E463E00E94780381E464E00E944C
S11300A0780381E465E00E9478030E948A038091CA
S11300B061008F3130F081E463E00E948403109288
S11300C06100809162008E3330F081E464E00E942C
S11300D0840310926200809160008D3540F381E4C6
S11300E065E00E94840310926000E1CF1F920F929A
S11300F00FB60F9211248F93809161008F5F8093CC
S11301006100809162008F5F809362008091600043
S11301108F5F809360008F910F900FBE0F901F90A0
S11301201895843409F471C0853448F4823499F103
S1130130833408F04DC0813409F083C00FC0823687
S113014051F1833620F4813609F07BC007C0833631
S113015009F43EC0843609F074C057C0413069F4D4
S11301602AB381E090E0AC0102C0440F551F6A95A8
S1130170E2F7BA01622B6ABB08952AB381E090E0EA
S1130180AC0102C0440F551F6A95E2F7BA016095AD
S113019062236ABB0895413069F427B381E090E09B
S11301A0AC0102C0440F551F6A95E2F7BA01622BF5
S11301B067BB089527B381E090E0AC0102C0440F0F
S11301C0551F6A95E2F7BA016095622367BB0895EB
S11301D0413069F424B381E090E0AC0102C0440FE3
S11301E0551F6A95E2F7BA01622B64BB089524B3E4
S11301F081E090E0AC0102C0440F551F6A95E2F71C
S1130200BA016095622364BB0895413069F421B357
S113021081E090E0AC0102C0440F551F6A95E2F7FB
S1130220BA01622B61BB089521B381E090E0AC0177
S113023002C0440F551F6A95E2F7BA016095622324
S113024061BB0895843409F471C0853448F4823460
S113025099F1833408F04DC0813409F083C00FC094
S1130260823651F1833620F4813609F07BC007C011
S1130270833609F43EC0843609F074C057C0413057
S113028069F42BB381E090E0AC0102C0440F551F28
S11302906A95E2F7BA01622B6BBB08952BB381E038
S11302A090E0AC0102C0440F551F6A95E2F7BA0111
S11302B0609562236BBB0895413069F428B381E0F3
S11302C090E0AC0102C0440F551F6A95E2F7BA01F1
S11302D0622B68BB089528B381E090E0AC0102C0B2
S11302E0440F551F6A95E2F7BA016095622368BB13
S11302F00895413069F425B381E090E0AC0102C077
S1130300440F551F6A95E2F7BA01622B65BB089545
S113031025B381E090E0AC0102C0440F551F6A95FB
S1130320E2F7BA016095622365BB0895413069F430
S113033022B381E090E0AC0102C0440F551F6A95DE
S1130340E2F7BA01622B62BB089522B381E090E028
S1130350AC0102C0440F551F6A95E2F7BA016095DB
S1130360622362BB0895843499F1853438F482346D
S1130370D9F0833418F58134A9F50CC08236A1F084
S1130380833618F4813671F505C08336B9F08436A6
S113039049F51EC029B330E0C90102C0959587957F
S11303A06A95E2F78170089526B330E0C90102C06E
S11303B0959587956A95E2F78170089523B330E0A7
S11303C0C90102C0959587956A95E2F781700895F1
S11303D020B330E0C90102C0959587956A95E2F78C
S11303E08170089580E00895843409F43DC0853413
S11303F040F48234F9F0833450F5813409F040C07C
S11304000CC08236B9F0833618F48136C9F505C0BC
S11304108336E9F08436A1F527C02BB381E090E060
S1130420AC0102C0440F551F6A95E2F7BA01622776
S11304306BBB089528B381E090E0AC0102C0440F87
S1130440551F6A95E2F7BA01622768BB089525B380
S113045081E090E0AC0102C0440F551F6A95E2F7B9
S1130460BA01622765BB089522B381E090E0AC0134
S113047002C0440F551F6A95E2F7BA01622762BBB6
S113048008958434D9F0853438F4823499F083346F
S113049098F48134A1F40CC0823661F0833618F4E8
S11304A0813669F405C0833639F0843641F406C0D8
S11304B06ABB089567BB089564BB089561BB089542
S11304C08434D9F0853438F4823499F0833498F440
S11304D08134A1F40CC0823661F0833618F481367D
S11304E069F405C0833639F0843641F406C06BBB29
S11304F0089568BB089565BB089562BB089584346C
S1130500D9F0853438F4823499F0833498F4813402
S1130510A9F40CC0823661F0833618F4813671F484
S113052005C0833639F0843649F406C089B308958A
S113053086B3089583B3089580B3089580E0089541
S1130540843409F457C0853440F4823449F1833447
S1130550E0F5813409F062C00EC0823609F18336B9
S113056020F4813609F05AC006C0833671F184360E
S113057009F054C03FC02AB381E090E0AC0102C04E
S1130580440F551F6A95E2F7BA01842F80958223A0
S11305908ABB80B78B7F80BF8BB3682B6BBB0895FE
S11305A027B381E090E0AC0102C0440F551F6A9567
S11305B0E2F7BA01842F8095822387BB80B78B7FB3
S11305C080BF88B3682B68BB089524B381E090E0B2
S11305D0AC0102C0440F551F6A95E2F7BA01842F9B
S11305E08095822384BB80B78B7F80BF85B3682BC3
S11305F065BB089521B381E090E0AC0102C0440FD3
S1130600551F6A95E2F7BA01842F8095822381BB36
S113061080B78B7F80BF82B3682B62BB08956295DD
S1130620607F843451F1853438F48234C1F08334EA
S1130630E8F4813441F50CC0823689F0833618F42D
S1130640813609F505C0833689F08436E1F415C096
S11306508BB38F708BBB8BB3682B6BBB089588B344
S11306608F7088BB88B3682B68BB089585B38F707F
S113067085BB85B3682B65BB089582B38F7082BB3D
S113068082B3682B62BB08956F70843451F1853452
S113069038F48234C1F08334E8F4813441F50CC079
S11306A0823689F0833618F4813609F505C083361D
S11306B089F08436E1F415C08BB3807F8BBB8BB398
S11306C0682B6BBB089588B3807F88BB88B3682B85
S11306D068BB089585B3807F85BB85B3682B65BBF4
S11306E0089582B3807F82BB82B3682B62BB089576
S11306F041E00E949100089541E00E942201089582
S113070040E00E94220108950E94F40108950E948D
S1130710B301089583B78F7B83BF83B7886083BF9A
S11307208CEF8CBF83B7816083BF83B78D7F83BF1A
S113073083B7846083BF789489B7826089BF089542
S1070740F894FFCF57
S9030000FC
