:100000000C942A000C9447000C9447000C94470071
:100010000C9447000C9447000C9447000C94470044
:100020000C9447000C9447000C9447000C94470034
:100030000C9447000C9447000C9447000C94470024
:100040000C9447000C9447000C9447000C94470014
:100050000C94470011241FBECFE5D8E0DEBFCDBF12
:1000600010E0A0E6B0E0ECE3F2E102C005900D92F2
:10007000A83DB107D9F710E0A8EDB0E001C01D928E
:10008000A83DB107E1F70E9449000C941C090C94AB
:1000900000000E9427040E947D0384E460E00E9427
:1000A0008C0484E461E00E948C0484E460E00E949B
:1000B000940484E461E00E94940480E690E00E944D
:1000C0009E04DC01CB018F3F2FEF92072FEFA20799
:1000D0002FEFB20729F480E690E00E94E4040CC000
:1000E00084E460E00E94900484E461E00E9494044F
:1000F00080E690E00E94B40580E090E008958434AA
:1001000009F471C0853448F4823499F1833408F0DD
:100110004DC0813409F083C00FC0823651F183365F
:1001200020F4813609F07BC007C0833609F43EC055
:10013000843609F074C057C0413069F42AB381E0B5
:1001400090E0AC0102C0440F551F6A95E2F7BA0176
:10015000622B6ABB08952AB381E090E0AC0102C033
:10016000440F551F6A95E2F7BA01609562236ABB96
:100170000895413069F427B381E090E0AC0102C0FA
:10018000440F551F6A95E2F7BA01622B67BB0895C9
:1001900027B381E090E0AC0102C0440F551F6A957F
:1001A000E2F7BA016095622367BB0895413069F4B4
:1001B00024B381E090E0AC0102C0440F551F6A9562
:1001C000E2F7BA01622B64BB089524B381E090E0AA
:1001D000AC0102C0440F551F6A95E2F7BA01609561
:1001E000622364BB0895413069F421B381E090E05B
:1001F000AC0102C0440F551F6A95E2F7BA01622BA9
:1002000061BB089521B381E090E0AC0102C0440FCE
:10021000551F6A95E2F7BA016095622361BB0895A4
:10022000843409F471C0853448F4823499F18334FC
:1002300008F04DC0813409F083C00FC0823651F1FF
:10024000833620F4813609F07BC007C0833609F479
:100250003EC0843609F074C057C0413069F42BB3F6
:1002600081E090E0AC0102C0440F551F6A95E2F7AF
:10027000BA01622B6BBB08952BB381E090E0AC0117
:1002800002C0440F551F6A95E2F7BA0160956223D8
:100290006BBB0895413069F428B381E090E0AC0174
:1002A00002C0440F551F6A95E2F7BA01622B68BB82
:1002B000089528B381E090E0AC0102C0440F551FBF
:1002C0006A95E2F7BA016095622368BB08954130F0
:1002D00069F425B381E090E0AC0102C0440F551FE2
:1002E0006A95E2F7BA01622B65BB089525B381E0F8
:1002F00090E0AC0102C0440F551F6A95E2F7BA01C5
:100300006095622365BB0895413069F422B381E0B2
:1003100090E0AC0102C0440F551F6A95E2F7BA01A4
:10032000622B62BB089522B381E090E0AC0102C071
:10033000440F551F6A95E2F7BA016095622362BBCC
:100340000895843499F1853438F48234D9F08334B3
:1003500018F58134A9F50CC08236A1F0833618F463
:10036000813671F505C08336B9F0843649F51EC073
:1003700029B330E0C90102C0959587956A95E2F7E7
:100380008170089526B330E0C90102C09595879524
:100390006A95E2F78170089523B330E0C90102C085
:1003A000959587956A95E2F78170089520B330E0BE
:1003B000C90102C0959587956A95E2F78170089505
:1003C00080E00895843409F43DC0853440F48234DB
:1003D000F9F0833450F5813409F040C00CC0823606
:1003E000B9F0833618F48136C9F505C08336E9F0D3
:1003F0008436A1F527C02BB381E090E0AC0102C0A8
:10040000440F551F6A95E2F7BA0162276BBB089546
:1004100028B381E090E0AC0102C0440F551F6A95FB
:10042000E2F7BA01622768BB089525B381E090E046
:10043000AC0102C0440F551F6A95E2F7BA0162276A
:1004400065BB089522B381E090E0AC0102C0440F87
:10045000551F6A95E2F7BA01622762BB089584349A
:10046000D9F0853438F4823499F0833498F48134A7
:10047000A1F40CC0823661F0833618F4813669F439
:1004800005C0833639F0843641F406C06ABB08954E
:1004900067BB089564BB089561BB08958434D9F0A7
:1004A000853438F4823499F0833498F48134A1F49B
:1004B0000CC0823661F0833618F4813669F405C0C9
:1004C000833639F0843641F406C06BBB089568BBAF
:1004D000089565BB089562BB08958434D9F08534CE
:1004E00038F4823499F0833498F48134A9F40CC040
:1004F000823661F0833618F4813671F405C0833694
:1005000039F0843649F406C089B3089586B3089556
:1005100083B3089580B3089580E00895843409F486
:1005200057C0853440F4823449F18334E0F5813496
:1005300009F062C00EC0823609F1833620F481369C
:1005400009F05AC006C0833671F1843609F054C0F0
:100550003FC02AB381E090E0AC0102C0440F551FB8
:100560006A95E2F7BA01842F809582238ABB80B70F
:100570008B7F80BF8BB3682B6BBB089527B381E063
:1005800090E0AC0102C0440F551F6A95E2F7BA0132
:10059000842F8095822387BB80B78B7F80BF88B3F1
:1005A000682B68BB089524B381E090E0AC0102C0E1
:1005B000440F551F6A95E2F7BA01842F8095822374
:1005C00084BB80B78B7F80BF85B3682B65BB0895E4
:1005D00021B381E090E0AC0102C0440F551F6A9541
:1005E000E2F7BA01842F8095822381BB80B78B7F8D
:1005F00080BF82B3682B62BB08956295607F8434AC
:1006000051F1853438F48234C1F08334E8F4813414
:1006100041F50CC0823689F0833618F4813609F52D
:1006200005C0833689F08436E1F415C08BB38F7032
:100630008BBB8BB3682B6BBB089588B38F7088BB63
:1006400088B3682B68BB089585B38F7085BB85B36D
:10065000682B65BB089582B38F7082BB82B3682B11
:1006600062BB08956F70843451F1853438F482345C
:10067000C1F08334E8F4813441F50CC0823689F04E
:10068000833618F4813609F505C0833689F084363F
:10069000E1F415C08BB3807F8BBB8BB3682B6BBB36
:1006A000089588B3807F88BB88B3682B68BB0895A2
:1006B00085B3807F85BB85B3682B65BB089582B306
:1006C000807F82BB82B3682B62BB08952CB321FD6F
:1006D000FDCF07B600FCFDCF8EBB9FBB6DBBE29A82
:1006E000E19A8CB381FDFDCF08952CB321FDFDCFA0
:1006F0008EBB9FBBE09A8DB3089583E460E041E038
:100700000E947F0083E461E041E00E947F0083E477
:1007100062E041E00E947F0083E463E00E948E0279
:1007200083E464E00E948E0283E465E00E948E020E
:1007300083E466E00E948E0208950F931F93CF9387
:10074000DF93CDB7DEB72C970FB6F894DEBF0FBEA0
:10075000CDBFDE011196E8E6F0E08CE001900D924D
:100760008150E1F710E083E460E041E00E94100175
:1007700083E461E041E00E94100183E462E041E033
:100780000E94100183E4612F40E00E94100100E00C
:10079000602F6D5F83E40E94A101882369F4802F9C
:1007A00090E0FC01EE0FFF1FE80FF91FE10FF11DB4
:1007B000EC0FFD1F818104C00F5F043049F70BC0AF
:1007C0002C960FB6F894DEBF0FBECDBFDF91CF9150
:1007D0001F910F9108951F5F133029F68FEFF0CF0F
:1007E00082E460E041E00E9410018FE99FE0019700
:1007F000F1F700C0000082E460E040E00E941001D8
:100800008FEC97E00197F1F700C000000895682F82
:1008100081E40E944E0282E461E040E00E94100107
:100820000E94F003089581E00E9407048FE99FE091
:100830000197F1F700C00000089582E00E940704CC
:100840008FE99FE00197F1F700C0000008958FEF56
:1008500099EFA0E081509040A040E1F700C0000077
:1008600081E461E00E942F0282E460E041E00E94A6
:100870007F0082E461E041E00E947F0088E30E9403
:1008800007040E941D048CE00E9407040E941304C8
:1008900086E00E9407040895CF93C82F82E461E0A8
:1008A00041E00E94100181E46C2F0E944E020E94E0
:1008B000F003CF910895CF93DF93EC0188818823D3
:1008C00031F021960E944C0489918823D9F7DF9159
:1008D000CF910895982F91509430B0F46623B1F0E1
:1008E0006531B0F4813019F4862F815812C08230FE
:1008F00019F4862F81540DC0833019F4862F815747
:1009000008C0862F815305C080E803C080E801C07D
:1009100080E80E940704089541E00E947F00089546
:1009200041E00E941001089540E00E9410010895E6
:100930000E94E20108950E94A1010895CF92DF92E2
:10094000EF92FF92CF93DF93EC01888199810E940F
:10095000750390E0A0E0B0E0CC24D82EE92EFA2E6A
:100960008A819B810E94750390E0A0E0B0E0C82AD4
:10097000D92AEA2AFB2AFE2CED2CDC2CCC248C81F3
:100980009D810E94750390E0A0E0B0E0C82AD92ABA
:10099000EA2AFB2AFE2CED2CDC2CCC248E819F81B4
:1009A0000E94750390E0A0E0B0E0C82AD92AEA2AA4
:1009B000FB2A6C2D7D2D8E2D9F2DDF91CF91FF90E9
:1009C000EF90DF90CF9008959F92AF92BF92CF9219
:1009D000DF92EF92FF920F931F93CF93DF93CDB7E8
:1009E000DEB7A1970FB6F894DEBF0FBECDBF5C0196
:1009F000FE01319681E2DF011D928A95E9F781E0DF
:100A000061E00E946A0484E790E00E945B0482E057
:100A100061E00E946A0483E890E00E945B0483E046
:100A200061E00E946A0411E0CC24DD2476010F2EDF
:100A3000FAE09F2EF02D0E949D03082F8F3FD9F3DF
:100A4000833219F10E944C04612F70E080E090E045
:100A5000A70196010E942606DC01CB0110E000539D
:100A600010406801EE24D7FCE094FE2CC80ED91E7D
:100A7000EA1EFB1E8FE79AE1A6E081509040A0405D
:100A8000E1F700C00000192DD6CF83E20E944C048C
:100A90000E94130483E990E00E945B0482E061E01D
:100AA0000E946A04ADB7BEB718970FB6F894BEBFE0
:100AB0000FBEADBFEDB7FEB731968E010F5F1F4F72
:100AC00012961C930E93119784EA90E0938382838D
:100AD000C482D582E682F7820E944506EDB7FEB752
:100AE00038960FB6F894FEBF0FBEEDBFC8010E9446
:100AF0005B044F2D552766277727D5018D919C9153
:100B0000642F0E946603A70166277727F50182817B
:100B10009381642F0E94660377276F2D5E2D4D2DE4
:100B2000D50114968D919C911597642F0E946603B0
:100B3000F501868197816C2D0E9466036C2D7D2DB9
:100B40008E2D9F2DA1960FB6F894DEBF0FBECDBFA0
:100B5000DF91CF911F910F91FF90EF90DF90CF9099
:100B6000BF90AF909F900895AF92BF92CF92DF92C7
:100B7000EF92FF921F93CF93DF935C0181E061E0DE
:100B80000E946A0488EA90E00E945B0482E061E0CF
:100B90000E946A0483E890E00E945B0483E061E0C5
:100BA0000E946A04D1E0CC24DD2476011AE00E9480
:100BB0009D03C82F8F3FD9F3833211F10E944C045B
:100BC0006D2F70E080E090E0A70196010E9426065C
:100BD000DC01CB01D0E0E0976E01EE24D7FCE0947D
:100BE000FE2CC80ED91EEA1EFB1E8FE79AE1A6E076
:100BF00081509040A040E1F700C00000D12FD7CF36
:100C000083E20E944C04C5010E949E04DC01CB01DA
:100C10008C159D05AE05BF0541F40E94130487EBBA
:100C200090E00E945B0481E007C00E94130488ECFE
:100C300090E00E945B0480E0DF91CF911F91FF90D4
:100C4000EF90DF90CF90BF90AF900895629FD0015A
:100C5000739FF001829FE00DF11D649FE00DF11D77
:100C6000929FF00D839FF00D749FF00D659FF00D26
:100C70009927729FB00DE11DF91F639FB00DE11D13
:100C8000F91FBD01CF0111240895AEE0B0E0EBE4FF
:100C9000F6E00C94F3080D891E8986E08C831A8394
:100CA00009838FEF9FE79E838D83AE01475E5F4F81
:100CB000CE0101966F89788D0E946706EF81F885D5
:100CC000E00FF11F10822E96E4E00C940F09ADE0C6
:100CD000B0E0EDE6F6E00C94E5083C017D876C871A
:100CE0005A01FC0117821682838181FFC8C12E013F
:100CF0000894411C511CF3019381EC85FD8593FD03
:100D0000859193FF8191FD87EC87882309F4B3C116
:100D1000853241F493FD859193FF8191FD87EC87A6
:100D2000853229F490E0B3010E945B08E4CFFF24F0
:100D3000EE2410E01032B0F48B3269F08C3228F4DB
:100D4000803251F0833271F40BC08D3239F0803330
:100D500049F411602CC01260146029C0186027C0CB
:100D6000106125C017FD2EC0282F20532A3098F47B
:100D700016FF08C08F2D880FF82EFF0CFF0CF80E01
:100D8000F20E15C08E2D880FE82EEE0CEE0CE80E3C
:100D9000E20E10620CC08E3221F416FD6CC110649C
:100DA00006C08C3611F4106802C0883659F4EC8500
:100DB000FD8593FD859193FF8191FD87EC878823C5
:100DC00009F0B8CF982F9554933018F09052933083
:100DD00038F424E030E0A20EB31E3FE339830FC0A5
:100DE000833631F0833781F0833509F05AC022C051
:100DF000F5018081898322E030E0A20EB31E21E05C
:100E0000C22ED12C420114C092E0292E312C2A0C82
:100E10003B1CF5018080918016FF03C06F2D70E0B0
:100E200002C06FEF7FEFC4010E9450086C015101B6
:100E30001F7715C082E0282E312C2A0C3B1CF501AF
:100E40008080918016FF03C06F2D70E002C06FEFAD
:100E50007FEFC4010E9445086C011068510113FD29
:100E60001CC006C080E290E0B3010E945B08EA94D7
:100E70008E2D90E0C816D906A8F30FC0F40117FD17
:100E8000859117FF81914F0190E0B3010E945B08AB
:100E9000E110EA940894C108D108C114D10471F793
:100EA000E7C0843611F0893651F5F50117FF07C008
:100EB00080819181A281B38124E030E008C08081EB
:100EC0009181AA2797FDA095BA2F22E030E0A20ECB
:100ED000B31E012F0F76B7FF08C0B095A09590956F
:100EE00081959F4FAF4FBF4F0068BC01CD01A2015C
:100EF0002AE030E00E948708D82ED4183FC08537FA
:100F000021F41F7E2AE030E020C0197F8F36A9F03F
:100F1000803720F4883509F0AEC00BC0803721F04F
:100F2000883709F0A8C001C0106114FF09C014601F
:100F300007C014FF08C0166006C028E030E005C0F6
:100F400020E130E002C020E132E0F50117FF07C0E8
:100F5000608171818281938144E050E006C06081AC
:100F6000718180E090E042E050E0A40EB51EA20145
:100F70000E948708D82ED418012F0F7706FF09C0CA
:100F80000E7FDF1430F404FF06C002FD04C00F7EA4
:100F900002C01D2D01C01F2D802F90E004FF0CC04A
:100FA000FE01ED0DF11D2081203311F4097E09C0F1
:100FB00002FF06C01E5F05C086789070009709F09A
:100FC0001F5F802E992403FD12C000FF0DC0FD2C71
:100FD0001E1550F4FE0CF11A1E2D06C080E290E0A2
:100FE000B3010E945B081F5F1E15C0F304C01E15ED
:100FF00010F4E11A01C0EE2484FE0FC080E390E0FB
:10100000B3010E945B0882FE1FC081FE03C088E519
:1010100090E010C088E790E00DC0C4018678907021
:10102000009791F081FC02C080E201C08BE207FDD5
:101030008DE290E0B3010E945B0806C080E390E07F
:10104000B3010E945B08FA94DF14C0F3DA94F20152
:10105000ED0DF11D808190E0B3010E945B08DD2061
:10106000A9F706C080E290E0B3010E945B08EA9411
:10107000EE20C1F740CEF3018681978102C08FEF49
:101080009FEF2D96E2E10C940109FC01059061505F
:1010900070400110D8F7809590958E0F9F1F08958E
:1010A000FC016150704001900110D8F78095909537
:1010B0008E0F9F1F08950F931F93CF93DF938C0183
:1010C000EB018B8181FF1BC082FF0DC02E813F8110
:1010D0008C819D812817390764F4E881F981019397
:1010E000F983E88306C0E885F985802F0995009784
:1010F00031F48E819F8101969F838E8302C00FEF12
:101100001FEFC801DF91CF911F910F910895FA0150
:10111000AA27283051F1203181F1E8946F936E7F36
:101120006E5F7F4F8F4F9F4FAF4FB1E03ED0B4E027
:101130003CD0670F781F891F9A1FA11D680F791F68
:101140008A1F911DA11D6A0F711D811D911DA11D79
:1011500020D009F468943F912AE0269F1124301989
:10116000305D3193DEF6CF010895462F4770405D24
:101170004193B3E00FD0C9F7F6CF462F4F70405DD3
:101180004A3318F0495D31FD4052419302D0A9F72E
:10119000EACFB4E0A6959795879577956795BA9528
:1011A000C9F700976105710508959B01AC010A2EEE
:1011B00006945795479537952795BA95C9F7620FC5
:1011C000731F841F951FA01D08952F923F924F9269
:1011D0005F926F927F928F929F92AF92BF92CF92C7
:1011E000DF92EF92FF920F931F93CF93DF93CDB7D0
:1011F000DEB7CA1BDB0B0FB6F894DEBF0FBECDBF48
:1012000009942A88398848885F846E847D848C8418
:101210009B84AA84B984C884DF80EE80FD800C8121
:101220001B81AA81B981CE0FD11D0FB6F894DEBF04
:0C1230000FBECDBFED010895F894FFCF74
:10123C007A007B007C007D00313233343536373810
:10124C00392A302353657420612070617373776F72
:10125C007264005468656E20656E74657220272375
:10126C00272000596F75722070617373776F7264E9
:10127C0020697300256C7500456E74657220706171
:10128C007373776F72640050617373776F7264203D
:10129C00636F7272656374005061737320696E635F
:0812AC006F72726563740000AB
:00000001FF
