:100000000C942A000C9447000C9447000C94470071
:100010000C9447000C9447000C9447000C94470044
:100020000C9447000C9447000C9447000C94470034
:100030000C9447000C9447000C9447000C94470024
:100040000C9447000C9447000C9447000C94470014
:100050000C94470011241FBECFE5D8E0DEBFCDBF12
:1000600011E0A0E6B0E0ECEAFAE102C005900D92E2
:10007000A036B107D9F711E0A0E6B1E001C01D92AA
:10008000A036B107E1F70E9449000C94540D0C947E
:1000900000000E9452000E9470030E9461000E94B2
:1000A0008D03FBCF379A3E9A3F98389839983A9803
:1000B0003B983C983D98359833983098319A329ACD
:1000C0000895369A86B186FDFDCF84B190E045B1A2
:1000D000342F20E0822B932B0895843409F471C0CF
:1000E000853448F4823499F1833408F04DC081346A
:1000F00009F083C00FC0823651F1833620F4813677
:1001000009F07BC007C0833609F43EC0843609F08D
:1001100074C057C0413069F42AB381E090E0AC016B
:1001200002C0440F551F6A95E2F7BA01622B6ABB01
:1001300008952AB381E090E0AC0102C0440F551F3E
:100140006A95E2F7BA01609562236ABB089541306F
:1001500069F427B381E090E0AC0102C0440F551F61
:100160006A95E2F7BA01622B67BB089527B381E075
:1001700090E0AC0102C0440F551F6A95E2F7BA0146
:100180006095622367BB0895413069F424B381E030
:1001900090E0AC0102C0440F551F6A95E2F7BA0126
:1001A000622B64BB089524B381E090E0AC0102C0EF
:1001B000440F551F6A95E2F7BA016095622364BB4C
:1001C0000895413069F421B381E090E0AC0102C0B0
:1001D000440F551F6A95E2F7BA01622B61BB08957F
:1001E00021B381E090E0AC0102C0440F551F6A9535
:1001F000E2F7BA016095622361BB0895843409F483
:1002000071C0853448F4823499F1833408F04DC0CC
:10021000813409F083C00FC0823651F1833620F457
:10022000813609F07BC007C0833609F43EC08436AE
:1002300009F074C057C0413069F42BB381E090E0FD
:10024000AC0102C0440F551F6A95E2F7BA01622B58
:100250006BBB08952BB381E090E0AC0102C0440F6A
:10026000551F6A95E2F7BA01609562236BBB08954A
:10027000413069F428B381E090E0AC0102C0440F42
:10028000551F6A95E2F7BA01622B68BB089528B33F
:1002900081E090E0AC0102C0440F551F6A95E2F77F
:1002A000BA016095622368BB0895413069F425B3B3
:1002B00081E090E0AC0102C0440F551F6A95E2F75F
:1002C000BA01622B65BB089525B381E090E0AC01D3
:1002D00002C0440F551F6A95E2F7BA016095622388
:1002E00065BB0895413069F422B381E090E0AC0130
:1002F00002C0440F551F6A95E2F7BA01622B62BB38
:10030000089522B381E090E0AC0102C0440F551F74
:100310006A95E2F7BA016095622362BB089584345E
:1003200099F1853438F48234D9F0833418F5813466
:10033000A9F50CC08236A1F0833618F4813671F528
:1003400005C08336B9F0843649F51EC029B330E0C4
:10035000C90102C0959587956A95E2F78170089565
:1003600026B330E0C90102C0959587956A95E2F7FA
:100370008170089523B330E0C90102C09595879537
:100380006A95E2F78170089520B330E0C90102C098
:10039000959587956A95E2F78170089580E00895B4
:1003A000843409F43DC0853440F48234F9F0833458
:1003B00050F5813409F040C00CC08236B9F0833664
:1003C00018F48136C9F505C08336E9F08436A1F505
:1003D00027C02BB381E090E0AC0102C0440F551F51
:1003E0006A95E2F7BA0162276BBB089528B381E0F2
:1003F00090E0AC0102C0440F551F6A95E2F7BA01C4
:10040000622768BB089525B381E090E0AC0102C08B
:10041000440F551F6A95E2F7BA01622765BB08953C
:1004200022B381E090E0AC0102C0440F551F6A95F1
:10043000E2F7BA01622762BB08958434D9F08534AB
:1004400038F4823499F0833498F48134A1F40CC0E8
:10045000823661F0833618F4813669F405C083363C
:1004600039F0843641F406C06ABB089567BB08952D
:1004700064BB089561BB08958434D9F0853438F4A1
:10048000823499F0833498F48134A1F40CC082361C
:1004900061F0833618F4813669F405C0833639F08B
:1004A000843641F406C06BBB089568BB089565BBF4
:1004B000089562BB08958434D9F0853438F48234C9
:1004C00099F0833498F48134A9F40CC0823661F039
:1004D000833618F4813671F405C0833639F08436DA
:1004E00049F406C089B3089586B3089583B3089587
:1004F00080B3089580E00895843409F457C08534AA
:1005000040F4823449F18334E0F5813409F062C06B
:100510000EC0823609F1833620F4813609F05AC0C4
:1005200006C0833671F1843609F054C03FC02AB347
:1005300081E090E0AC0102C0440F551F6A95E2F7DC
:10054000BA01842F809582238ABB80B78B7F80BFBE
:100550008BB3682B6BBB089527B381E090E0AC01AF
:1005600002C0440F551F6A95E2F7BA01842F8095A7
:10057000822387BB80B78B7F80BF88B3682B68BB23
:10058000089524B381E090E0AC0102C0440F551FF0
:100590006A95E2F7BA01842F8095822384BB80B7E5
:1005A0008B7F80BF85B3682B65BB089521B381E045
:1005B00090E0AC0102C0440F551F6A95E2F7BA0102
:1005C000842F8095822381BB80B78B7F80BF82B3CD
:1005D000682B62BB08956295607F843451F1853445
:1005E00038F48234C1F08334E8F4813441F50CC02E
:1005F000823689F0833618F4813609F505C08336D2
:1006000089F08436E1F415C08BB38F708BBB8BB34C
:10061000682B6BBB089588B38F7088BB88B3682B39
:1006200068BB089585B38F7085BB85B3682B65BBA8
:10063000089582B38F7082BB82B3682B62BB08952A
:100640006F70843451F1853438F48234C1F08334CE
:10065000E8F4813441F50CC0823689F0833618F411
:10066000813609F505C0833689F08436E1F415C07A
:100670008BB3807F8BBB8BB3682B6BBB089588B328
:10068000807F88BB88B3682B68BB089585B3807F63
:1006900085BB85B3682B65BB089582B3807F82BB21
:1006A00082B3682B62BB089540E00E946D000895FC
:1006B0000E947C0208950E948F01089541E00E94EB
:1006C0006D00089541E00E94FE00089540E00E9400
:1006D000FE0008950E94D00108950E948F010895A0
:1006E00082E463E041E00E946D0080E88CBF83B744
:1006F000806483BF83B7886083BF83B7816083BF13
:1007000083B78D7F83BF83B7846083BF83B78061E6
:1007100083BF83B7806283BF08954F925F926F92C9
:100720007F928F929F92AF92BF92CF92DF92EF9281
:10073000FF920F931F93CF93DF93BC0180E090E073
:100740000E94EB0B20E030EC4FE754E40E94570B83
:1007500020E030E048EC52E40E94790C462F572FFD
:10076000682F792FCB01BA010E94BF0B2B01262FD6
:10077000352D40E050E060E070E080E090E004E083
:100780000E949804132FD42FB52FA62FF72FE82FF0
:10079000C22EC418C1E02C1508F0C0E0F32EF518E5
:1007A00021E01F1508F020E0BF2CBC1A31E0FB143B
:1007B00008F030E0232BFB2C142F31E0D41708F085
:1007C00030E0A12EA21A21E01A1508F020E0322B09
:1007D0001A2DD52F21E0B51708F020E09D2E931A91
:1007E00031E0D91508F030E0232BD92DC62F31E0A8
:1007F000A61708F030E08C2E821A21E0C81508F008
:1008000020E0322BC82DE72E21E0F71708F020E07A
:100810007E2C731A31E0E71408F030E0232BE72C2C
:10082000D82E81E0ED1508F080E06D2C621A21E0F1
:10083000D61408F020E0822BD62C592E581A2C2DD5
:100840003B2D4A2D592D682D772D862D952D04E0B1
:100850000E9498042C0DE1E02C1508F0E0E0B30EA6
:10086000F1E0BF1408F0F0E03E2F3B0DE1E03B1556
:1008700008F0E0E0FE2BA40EE1E0A11608F0E0E0B5
:100880004F2F4A0DF1E04A1508F0F0E0EF2B950EDE
:10089000F1E09D1608F0F0E05E2F590DE1E05915EA
:1008A00008F0E0E0FE2B860EE1E08C1608F0E0E0B8
:1008B0006F2F680DF1E0681508F0F0E0EF2B770E70
:1008C000F1E07E1408F0F0E07E2F770DE1E077157F
:1008D00008F0E0E0FE2B680EE1E06D1408F0E0E0C7
:1008E0008F2F860DF1E0861508F0F0E0EF2B950DC7
:1008F0009E0F0F2EF4E6AF2EF02DBB24CC24DD246A
:10090000EE24FF2400E010E00E9412052CBFDF91CE
:10091000CF911F910F91FF90EF90DF90CF90BF90FC
:10092000AF909F908F907F906F905F904F900895C1
:10093000CF92DF92EF92FF920F93CF93DF93CDB7D9
:10094000DEB760970FB6F894DEBF0FBECDBF0023B1
:1009500009F45AC029873A874B875C876D877E8761
:100960008F87988B80E2801B49855A856B857C85B3
:100970001816B4F019821A821B821C82992787FDEF
:100980009095909581959F4F04C0440F551F661F09
:10099000771F8A95D2F74D835E836F8378872CC04B
:1009A0006A017B01002E04C0CC0CDD1CEE1CFF1C78
:1009B0000A94D2F7C982DA82EB82FC826A017B0157
:1009C00004C0F694E794D794C7948A95D2F7D701D8
:1009D000C6014D855E856F85788904C0440F551F1B
:1009E000661F771F0A95D2F7842B952BA62BB72B62
:1009F0008D839E83AF83B88729813A814B815C8147
:100A00006D817E818F81988560960FB6F894DEBFE8
:100A10000FBECDBFDF91CF910F91FF90EF90DF9090
:100A2000CF900895A4E3B0E0E8E1F5E00C941E0D4A
:100A3000298B3A8B4B8B5C8B6D8B7E8B8F8B988F3E
:100A4000A986BA86CB86DC86ED86FE860F87188B54
:100A500089849A84AB84BC848D859E85AF85B88952
:100A600009891A892B893C890DA31EA32FA338A7B6
:100A7000CD88DE88EF88F88C0097A105B10509F0D4
:100A8000B5C3C814D904EA04FB0408F04DC110E052
:100A9000811610E0910611E0A10610E0B10658F4AD
:100AA0002FEF82169104A104B10409F090F480E0C4
:100AB00090E0DC0117C030E0831630E0930630E0B0
:100AC000A30631E0B30650F480E190E0A0E0B0E08E
:100AD00009C088E090E0A0E0B0E004C088E190E0C8
:100AE000A0E0B0E0B501A401082E04C0769567959A
:100AF000579547950A94D2F7FA01E05AFF4F2081A3
:100B000040E250E060E070E0481B590B6A0B7B0B41
:100B1000421B5109610971094115510561057105B2
:100B2000A1F1042E04C0880C991CAA1CBB1C0A94B9
:100B3000D2F797018601042E04C0000F111F221F57
:100B4000331F0A94D2F780E290E0841B950BCDA06E
:100B5000DEA0EFA0F8A404C0F694E794D794C7945D
:100B60008A95D2F7C02AD12AE22AF32A0DA11EA122
:100B70002FA138A504C0000F111F221F331F4A9553
:100B8000D2F70DA31EA32FA338A72501662477242F
:100B9000950184012070307009A31AA32BA33CA3F4
:100BA000C701B601A30192010E94FB0C2D8F3E8F5D
:100BB0004F8F58A3698F7A8F8B8F9C8FC701B60197
:100BC000A30192010E94FB0CCA01B90129A13AA11B
:100BD0004BA15CA10E94DC0CAB01BC01098D1A8DFC
:100BE0002B8D3C8D7801DD24CC240DA11EA12FA1DD
:100BF00038A5C901AA27BB27C82AD92AEA2AFB2A6D
:100C00000D8D1E8D2F8D38A1C416D506E606F7066C
:100C100038F50150104020403040098F1A8F2B8F3B
:100C20003C8FC80CD91CEA1CFB1CC814D904EA046C
:100C3000FB04D0F0C416D506E606F706A8F40D8D21
:100C40001E8D2F8D38A10250104020403040098F5A
:100C50001A8F2B8F3C8FC80CD91CEA1CFB1C04C0BC
:100C6000098F1A8F2B8F3C8FC41AD50AE60AF70A10
:100C7000C701B601A30192010E94FB0C2D8F3E8F8C
:100C80004F8F58A369A77AA78BA79CA7C701B60166
:100C9000A30192010E94FB0CCA01B90129A13AA14A
:100CA0004BA15CA10E94DC0C6B017C0149A55AA5FB
:100CB0006BA57CA59A01112700274DA15EA16FA10C
:100CC00078A560707070042B152B262B372B8D8D1B
:100CD0009E8DAF8DB8A10C151D052E053F05C0F4E6
:100CE0000197A109B109080D191D2A1D3B1D081501
:100CF00019052A053B0560F00C151D052E053F055D
:100D000038F48D8D9E8DAF8DB8A10297A109B109E0
:100D1000098D1A8D2B8D3C8D7801DD24CC24C82AB9
:100D2000D92AEA2AFB2AA5C481149104A104B1049A
:100D300051F461E070E080E090E0A50194010E9430
:100D4000FB0C49015A0110E0811610E0910611E0F8
:100D5000A10610E0B10658F42FEF82169104A10409
:100D6000B10409F090F480E090E0DC0117C030E0BD
:100D7000831630E0930630E0A30631E0B30650F46A
:100D800080E190E0A0E0B0E009C088E090E0A0E061
:100D9000B0E004C088E190E0A0E0B0E0B501A401BB
:100DA000082E04C076956795579547950A94D2F713
:100DB000FA01E05AFF4F2081AC01BD01420F511DE5
:100DC000611D711D80E290E0A0E0B0E0841B950BF6
:100DD000A60BB70B51F4C818D908EA08FB08F1E0D4
:100DE0004F2E512C612C712C24C1082E04C0880C6C
:100DF000991CAA1CBB1C0A94D2F797018601042EE9
:100E000004C036952795179507950A94D2F709A33C
:100E10001AA32BA33CA397018601082E04C0000F40
:100E2000111F221F331F0A94D2F70D8F1E8F2F8F91
:100E300038A30DA11EA12FA138A504C03695279572
:100E4000179507954A95D2F7B901A8010D8D1E8D0A
:100E50002F8D38A1042B152B262B372B0D8F1E8F92
:100E60002F8F38A30DA11EA12FA138A504C0000FFC
:100E7000111F221F331F8A95D2F70DA31EA32FA384
:100E800038A72501662477249501840120703070ED
:100E900009A71AA72BA73CA769A17AA18BA19CA19E
:100EA000A30192010E94FB0C298F3A8F4B8F5C8F1C
:100EB0006B017C0169A17AA18BA19CA1A301920184
:100EC0000E94FB0CCA01B90129A53AA54BA55CA556
:100ED0000E94DC0CAB01BC017601DD24CC240D8D1D
:100EE0001E8D2F8D38A1C901AA27BB27C82AD92A50
:100EF000EA2AFB2A098D1A8D2B8D3C8DC416D50646
:100F0000E606F70638F5015010402040304009A3AE
:100F10001AA32BA33CA3C80CD91CEA1CFB1CC814A5
:100F2000D904EA04FB04D0F0C416D506E606F70699
:100F3000A8F4098D1A8D2B8D3C8D02501040204055
:100F4000304009A31AA32BA33CA3C80CD91CEA1C4C
:100F5000FB1C04C009A31AA32BA33CA3C41AD50AE3
:100F6000E60AF70AC701B601A30192010E94FB0C31
:100F7000298F3A8F4B8F5C8F6DA77EA78FA798AB79
:100F8000C701B601A30192010E94FB0CCA01B9017D
:100F900029A53AA54BA55CA50E94DC0C8B019C0100
:100FA0004DA55EA56FA578A9DA01992788274D8DF3
:100FB0005E8D6F8D78A160707070842B952BA62B41
:100FC000B72B498D5A8D6B8D7C8D80179107A207A9
:100FD000B307F0F44150504060407040880D991DB7
:100FE000AA1DBB1D88159905AA05BB0588F08017A9
:100FF0009107A207B30760F4498D5A8D6B8D7C8DE4
:101000004250504060407040880D991DAA1DBB1D84
:101010006C017D01C01AD10AE20AF30A09A11AA1E2
:101020002BA13CA1380155244424442A552A662A80
:10103000772A8501222733270D8F1E8F2F8F38A304
:10104000950184012070307009A71AA72BA73CA72F
:10105000C701B6012D8D3E8D4F8D58A10E94FB0C0E
:10106000298F3A8F4B8F5C8F69A37AA38BA39CA3A4
:10107000C701B6012D8D3E8D4F8D58A10E94FB0CEE
:10108000CA01B90129A53AA54BA55CA50E94DC0CB3
:10109000AB01BC0109A11AA12BA13CA17801DD245F
:1010A000CC240DA11EA12FA138A5C901AA27BB27B9
:1010B000C82AD92AEA2AFB2A098D1A8D2B8D3C8D44
:1010C000C416D506E606F70638F501501040204054
:1010D000304009A31AA32BA33CA3C80CD91CEA1CBB
:1010E000FB1CC814D904EA04FB04D0F0C416D506CE
:1010F000E606F706A8F4098D1A8D2B8D3C8D02505B
:1011000010402040304009A31AA32BA33CA3C80CD5
:10111000D91CEA1CFB1C04C009A31AA32BA33CA3E3
:10112000C41AD50AE60AF70AC701B6012D8D3E8D0D
:101130004F8D58A10E94FB0C298F3A8F4B8F5C8FEB
:101140006DA77EA78FA798ABC701B6012D8D3E8DE9
:101150004F8D58A10E94FB0CCA01B90129A53AA5DF
:101160004BA55CA50E94DC0C8B019C014DA55EA5E6
:101170006FA578A9DA01992788274DA15EA16FA1F3
:1011800078A560707070842B952BA62BB72B498D9A
:101190005A8D6B8D7C8D80179107A207B307D0F411
:1011A0004150504060407040880D991DAA1DBB1DE4
:1011B00088159905AA05BB0568F080179107A20755
:1011C000B30740F4498D5A8D6B8D7C8D4250504051
:1011D0006040704009A11AA12BA13CA17801DD2437
:1011E000CC24C42AD52AE62AF72A46C2C816D9062C
:1011F000EA06FB0608F42DC2803010E0910711E0EA
:10120000A10710E0B10750F48F3F9105A105B1058A
:1012100009F088F400E010E0980116C0803020E06A
:10122000920720E0A20721E0B20750F400E110E0AD
:1012300020E030E009C008E010E020E030E004C029
:1012400008E110E020E030E0AC01BD01002E04C058
:1012500076956795579547950A94D2F7FA01E05A23
:10126000FF4F4081040F111D211D311D40E250E050
:1012700060E070E0401B510B620B730BA1F48C1506
:101280009D05AE05BF0508F4EBC10DA11EA12FA160
:1012900038A5442455243201081519052A053B05B3
:1012A00008F0E1C1D9C1342E2C013D0104C0440C29
:1012B000551C661C771C4A95D2F7D501C401002E37
:1012C00004C0B695A795979587950A94D2F7482AB2
:1012D000592A6A2A7B2AA5019401032C04C0220FF3
:1012E000331F441F551F0A94D2F729A73AA74BA7CB
:1012F0005CA7B701A601002E04C0769567955795A7
:1013000047950A94D2F749A35AA36BA37CA3C701BC
:10131000B601032C04C0660F771F881F991F0A941B
:10132000D2F76D8F7E8F8F8F98A38DA19EA1AFA1D5
:10133000B8A504C0B695A795979587950A95D2F755
:101340004D8D5E8D6F8D78A1482B592B6A2B7B2B91
:101350004D8F5E8F6F8F78A34301AA24BB24930126
:101360008201207030700DA71EA72FA738AB69A18E
:101370007AA18BA19CA1A50194010E94FB0C298F4D
:101380003A8F4B8F5C8F6B017C0169A17AA18BA195
:101390009CA1A50194010E94FB0CCA01B9012DA5D5
:1013A0003EA54FA558A90E94DC0CDC01CB017601BB
:1013B000DD24CC240D8D1E8D2F8D38A1A90166272B
:1013C0007727C42AD52AE62AF72A098D1A8D2B8D6C
:1013D0003C8DC816D906EA06FB0638F501501040C8
:1013E0002040304009A31AA32BA33CA3C40CD51C56
:1013F000E61CF71CC414D504E604F704D0F0C816A4
:10140000D906EA06FB06A8F4098D1A8D2B8D3C8DB2
:10141000025010402040304009A31AA32BA33CA344
:10142000C40CD51CE61CF71C04C009A31AA32BA3EB
:101430003CA3C81AD90AEA0AFB0AC701B601A501EA
:1014400094010E94FB0C298F3A8F4B8F5C8F69AB04
:101450007AAB8BAB9CABC701B601A50194010E948E
:10146000FB0CCA01B9012DA53EA54FA558A90E94A4
:10147000DC0C4B015C0149A95AA96BA97CA99A0112
:10148000112700278D8D9E8DAF8DB8A1A070B070F3
:10149000082B192B2A2B3B2B898D9A8DAB8DBC8D5C
:1014A000081519052A053B05E0F40197A109B109C2
:1014B000040D151D261D371D0415150526053705B8
:1014C00080F0081519052A053B0558F4898D9A8D79
:1014D000AB8DBC8D0297A109B109040D151D261D08
:1014E000371DB901A801481959096A097B094D8FAF
:1014F0005E8F6F8F78A309A11AA12BA13CA178015F
:10150000DD24CC24C82AD92AEA2AFB2AFFEF8F2E11
:10151000FFEF9F2EA12CB12C8C209D20AE20BF2050
:10152000870122273327098F1A8F2B8F3C8F49A4DD
:101530005AA46BA47CA42FEF3FEF40E050E042227E
:1015400053226422752229A53AA54BA55CA58A01E0
:101550002227332709A31AA32BA33CA3C501B40157
:10156000A30192010E94DC0C69A77AA78BA79CA714
:10157000C501B40129A13AA14BA15CA10E94DC0CD8
:101580004B015C01698D7A8D8B8D9C8DA30192013D
:101590000E94DC0C2B013C01698D7A8D8B8D9C8D1A
:1015A00029A13AA14BA15CA10E94DC0CAB01BC01BA
:1015B000840C951CA61CB71C09A51AA52BA53CA537
:1015C000C901AA27BB27880E991EAA1EBB1E841418
:1015D0009504A604B70420F4405050406F4F7F4F4D
:1015E000C501AA27BB27840F951FA61FB71F0D8D06
:1015F0001E8D2F8D38A1081719072A073B0718F1F0
:1016000080179107A207B307A1F5540199248824F4
:1016100089A59AA5ABA5BCA5A070B070880E991E2F
:10162000AA1EBB1E4DA15EA16FA178A5032C04C00C
:10163000440F551F661F771F0A94D2F748155905A6
:101640006A057B05B0F40894C108D108E108F108E7
:1016500010C0442455243201CC24DD2476010CC072
:1016600044245524320181E0C82ED12CE12CF12CE8
:1016700003C0442455243201FE01319688E0DF0185
:101680001D928A95E9F7C982DA82EB82FC824D824B
:101690005E826F8278862C2D3A814B815C81642D2D
:1016A0007E818F819885E496E1E10C943A0D0CD00F
:1016B000E6C0DED040F0D5D030F021F45F3F19F025
:1016C000C7C0511110C1CAC0EBD098F39923C9F318
:1016D0005523B1F3951B550BBB27AA276217730738
:1016E000840738F09F5F5F4F220F331F441FAA1FEC
:1016F000A9F333D00E2E3AF0E0E830D091505040AC
:10170000E695001CCAF729D0FE2F27D0660F771F59
:10171000881FBB1F261737074807AB07B0E809F03B
:10172000BB0B802DBF01FF2793585F4F2AF09E3FD0
:10173000510568F08DC0D7C05F3FECF3983EDCF3F5
:10174000869577956795B795F7959F5FC9F7880F49
:10175000911D9695879597F90895E1E0660F771F9B
:10176000881FBB1F621773078407BA0720F0621B2C
:10177000730B840BBA0BEE1F88F7E095089598D091
:1017800088F09F5790F0B92F9927B751A0F0D1F06A
:10179000660F771F881F991F1AF0BA95C9F712C0F4
:1017A000B13081F09FD0B1E008959CC0672F782FB1
:1017B0008827B85F39F0B93FCCF386957795679560
:1017C000B395D9F73EF490958095709561957F4FCC
:1017D0008F4F9F4F0895E89409C097FB3EF4909572
:1017E0008095709561957F4F8F4F9F4F9923A9F0FA
:1017F000F92F96E9BB279395F69587957795679589
:10180000B795F111F8CFFAF4BB0F11F460FF1BC0CC
:101810006F5F7F4F8F4F9F4F16C0882311F096E95F
:1018200011C0772321F09EE8872F762F05C066230D
:1018300071F096E8862F70E060E02AF09A95660FC6
:10184000771F881FDAF7880F9695879597F908957F
:1018500097F99F6780E870E060E008959FEF80EC63
:10186000089500240A941616170618060906089506
:1018700000240A9412161306140605060895092E6C
:101880000394000C11F4882352F0BB0F40F4BF2BDB
:1018900011F460FF04C06F5F7F4F8F4F9F4F08951B
:1018A00057FD9058440F551F59F05F3F71F0479511
:1018B000880F97FB991F61F09F3F79F087950895F6
:1018C000121613061406551FF2CF4695F1DF08C015
:1018D000161617061806991FF1CF86957105610532
:1018E00008940895E894BB2766277727CB0197F9DA
:1018F00008950BD0C4CFB5DF28F0BADF18F09523D8
:1019000009F0A6CFABCF1124EECFCADFA0F3959F8D
:10191000D1F3950F50E0551F629FF001729FBB27D6
:10192000F00DB11D639FAA27F00DB11DAA1F649F82
:101930006627B00DA11D661F829F2227B00DA11D35
:10194000621F739FB00DA11D621F839FA00D611DBB
:10195000221F749F3327A00D611D231F849F600DDC
:10196000211D822F762F6A2F11249F5750408AF015
:10197000E1F088234AF0EE0FFF1FBB1F661F771FA1
:10198000881F91505040A9F79E3F510570F060CFDD
:10199000AACF5F3FECF3983EDCF386957795679589
:1019A000B795F795E7959F5FC1F7FE2B880F911DBF
:1019B0009695879597F90895629FD001739FF001DE
:1019C000829FE00DF11D649FE00DF11D929FF00DCF
:1019D000839FF00D749FF00D659FF00D9927729F06
:1019E000B00DE11DF91F639FB00DE11DF91FBD0191
:1019F000CF0111240895A1E21A2EAA1BBB1BFD01E1
:101A00000DC0AA1FBB1FEE1FFF1FA217B307E407DD
:101A1000F50720F0A21BB30BE40BF50B661F771F35
:101A2000881F991F1A9469F7609570958095909515
:101A30009B01AC01BD01CF0108952F923F924F92BF
:101A40005F926F927F928F929F92AF92BF92CF924E
:101A5000DF92EF92FF920F931F93CF93DF93CDB757
:101A6000DEB7CA1BDB0B0FB6F894DEBF0FBECDBFCF
:101A700009942A88398848885F846E847D848C84A0
:101A80009B84AA84B984C884DF80EE80FD800C81A9
:101A90001B81AA81B981CE0FD11D0FB6F894DEBF8C
:0C1AA0000FBECDBFED010895F894FFCFFC
:101AAC0000010202030303030404040404040404F9
:101ABC0005050505050505050505050505050505CA
:101ACC0006060606060606060606060606060606AA
:101ADC00060606060606060606060606060606069A
:101AEC00070707070707070707070707070707077A
:101AFC00070707070707070707070707070707076A
:101B0C000707070707070707070707070707070759
:101B1C000707070707070707070707070707070749
:101B2C000808080808080808080808080808080829
:101B3C000808080808080808080808080808080819
:101B4C000808080808080808080808080808080809
:101B5C0008080808080808080808080808080808F9
:101B6C0008080808080808080808080808080808E9
:101B7C0008080808080808080808080808080808D9
:101B8C0008080808080808080808080808080808C9
:101B9C0008080808080808080808080808080808B9
:00000001FF
